:100000000C9434000C9449000C9449000C94490061
:100010000C9449000C9449000C9449000C9449003C
:100020000C9449000C9449000C9449000C9449002C
:100030000C9449000C9449000C9449000C9449001C
:100040000C9449000C9449000C9449000C9449000C
:100050000C9449000C9449000C9449000C944900FC
:100060000C9449000C94490011241FBECFEFD8E036
:10007000DEBFCDBF11E0A0E0B1E0E6E0F1E002C0FC
:1000800005900D92AE30B107D9F70E9469000C942B
:1000900081000C9400009093C5008093C40088E018
:1000A0008093C10086E08093C20008959091C000C3
:1000B00095FFFCCF8093C6000895CF93DF93EC01AA
:1000C0008991882319F00E945600FACFDF91CF91D1
:1000D000089588E090E00E944B00259AC0E285B127
:1000E0008C2785B980E091E00E945D0085EF91E06A
:1000F0000197A9F3EFE9FFE03197F1F700C00000A5
:06010000F7CFF894FFCFD9
:0E010600546F67676C6564204C45440D0A0019
:00000001FF
